:100000000C9457000C9476000C9476000C947600B7
:100010000C9476000C9476000C9476000C94760088
:100020000C9476000C9476000C9476000C94760078
:100030000C9476000C94EF000C9476000C947600EF
:100040000C9476000C9476000C9476000C94760058
:100050000C9476000C9476000C9476000C94760048
:100060000C9476000C9476000C9476000C94760038
:100070000C9476000C9476000C9476000C94760028
:100080000C9476000C9476000C9476008D0292020B
:10009000A502E60200031A0334034E036803920329
:1000A00095039503950395039503950395031124F3
:1000B0001FBECFEFD0E4DEBFCDBF11E0A0E0B1E0C6
:1000C000EEE1FCE000E00BBF02C007900D92A8310A
:1000D000B107D9F721E0A8E1B1E001C01D92A43435
:1000E000B207E1F70E944C040C940D060C9400003A
:1000F000CF93DF9300D01F92CDB7DEB789837B8388
:100100006A8389818A3031F48A819B81BC018DE0C8
:100110000E94780080EC90E0FC018081882F90E0C4
:1001200080729927892BB1F386EC90E02981FC013C
:10013000208380E090E00F900F900F90DF91CF919F
:100140000895CF93DF93CDB7DEB781E890E02BE041
:10015000FC01208388E890E02DE730E0FC0131834A
:1001600020838FE690E022E0FC01208384E890E089
:10017000FC011182108280910E0190910F01A091DB
:100180001001B09111018093190190931A01A0936D
:100190001B01B0931C018FE590E02FE530E0F901E1
:1001A00020812068FC0120830000DF91CF91089519
:1001B000CF93DF93CDB7DEB781E890E0FC011082EA
:1001C0000000DF91CF910895CF93DF93CDB7DEB7D5
:1001D00081E0809318010000DF91CF9108951F9274
:1001E0000F9200905F000F92112400905B000F921D
:1001F0002F933F934F935F936F937F938F939F932F
:10020000AF93BF93EF93FF93CF93DF93CDB7DEB759
:100210008091190190911A01A0911B01B0911C01CC
:100220000197A109B1098093190190931A01A09334
:100230001B01B0931C018091190190911A01A091AA
:100240001B01B0911C01892B8A2B8B2B91F40E94EE
:10025000E40080910E0190910F01A0911001B091E6
:1002600011018093190190931A01A0931B01B0937F
:100270001C010000DF91CF91FF91EF91BF91AF91F1
:100280009F918F917F916F915F914F913F912F91AE
:100290000F9000925B000F9000925F000F901F90F4
:1002A0001895CF93DF9300D000D0CDB7DEB7698328
:1002B0007A838B839C8389819A81AB81BC81809373
:1002C0000E0190930F01A0931001B0931101809142
:1002D0000E0190910F01A0911001B0911101809336
:1002E000190190931A01A0931B01B0931C01000007
:1002F0000F900F900F900F90DF91CF910895CF93B3
:10030000DF9300D0CDB7DEB789836A838981882FD8
:1003100090E02A81222F30E002C0959587952A959A
:10032000E2F78170992721E0892B09F420E0822FE0
:100330000F900F90DF91CF910895CF93DF93CDB7BA
:10034000DEB788E290E02FEEFC012083000086E219
:1003500090E0FC01808160E00E947F01882311F41D
:1003600081E3B8C086E290E0FC01808161E00E94F8
:100370007F01882311F484E3ADC086E290E0FC01A4
:10038000808162E00E947F01882311F487E3A2C08C
:1003900086E290E0FC01808163E00E947F01882377
:1003A00011F48AE297C088E290E02FEDFC012083EF
:1003B000000086E290E0FC01808160E00E947F0105
:1003C000882311F482E386C086E290E0FC018081FC
:1003D00061E00E947F01882311F485E37BC086E2FF
:1003E00090E0FC01808162E00E947F01882311F48B
:1003F00088E370C086E290E0FC01808163E00E94A7
:100400007F01882311F480E365C088E290E02FEB40
:10041000FC012083000086E290E0FC01808160E026
:100420000E947F01882311F483E354C086E290E0A8
:10043000FC01808161E00E947F01882311F486E342
:1004400049C086E290E0FC01808162E00E947F0169
:10045000882311F489E33EC086E290E0FC018081AC
:1004600063E00E947F01882311F483E233C088E2B5
:1004700090E02FE7FC012083000086E290E0FC0181
:10048000808160E00E947F01882311F481E422C012
:1004900086E290E0FC01808161E00E947F01882378
:1004A00011F482E417C086E290E0FC01808162E0F2
:1004B0000E947F01882311F483E40CC086E290E05F
:1004C000FC01808163E00E947F01882311F484E4B1
:1004D00001C080E0DF91CF910895CF93DF9300D0EA
:1004E000CDB7DEB79A8389830E949D0180933F0137
:1004F00089819A81092E000CAA0BBB0B40E050E0C9
:1005000028E030E0841B950B2817390708F4F0C069
:100510008A5B9F4FFC010C94040681E090E09A8373
:100520008983ECC080913F01833229F482E090E01E
:100530009A838983E2C080913F01833209F4DDC050
:1005400081E090E09A838983D8C080913F0188231D
:10055000B9F580914301882F90E082309105D9F060
:10056000833091052CF4009761F0019779F0C6C0B3
:1005700084309105D1F08430910594F00597D1F045
:10058000BDC083E090E09A8389831FC084E090E03F
:100590009A8389831AC085E090E09A83898315C085
:1005A00086E090E09A83898310C087E090E09A8388
:1005B00089830BC088E090E09A838983000005C09E
:1005C00082E090E09A83898399C098C080913F012E
:1005D000813341F481E08093430182E090E09A838B
:1005E00089838CC080913F01882329F483E090E0C7
:1005F0009A83898383C081E090E09A8389837EC057
:1006000080913F01823341F482E08093430182E094
:1006100090E09A83898372C080913F01882329F4F6
:1006200084E090E09A83898369C081E090E09A83B6
:10063000898364C080913F01833341F483E08093D8
:10064000430182E090E09A83898358C080913F0102
:10065000882329F485E090E09A8389834FC081E064
:1006600090E09A8389834AC080913F01843341F4AA
:1006700084E08093430182E090E09A8389833EC0C6
:1006800080913F01882329F486E090E09A83898352
:1006900035C081E090E09A83898330C080913F012A
:1006A000853341F485E08093430182E090E09A83B2
:1006B000898324C080913F01882329F487E090E05A
:1006C0009A8389831BC081E090E09A83898316C056
:1006D00080913F01882339F01092430181E090E03E
:1006E0009A8389830BC088E090E09A83898306C04F
:1006F00081E090E09A83898301C0000089819A811A
:10070000092E000CAA0BBB0B41E050E027E030E0C3
:10071000841B950B2817390740F0815B9F4FFC0124
:100720000C94040610924301000089819A810F9075
:100730000F90DF91CF910895CF93DF9300D0CDB785
:10074000DEB79A83898389819A81009719F001978E
:1007500061F016C09091430181E0953009F080E08E
:10076000882F90E09A8389830EC09091430181E0A5
:10077000953009F080E0882F90E09A83898303C048
:100780001A821982000089819A81009719F00197D5
:1007900021F007C010923E0104C081E080933E0129
:1007A000000089819A810F900F90DF91CF91089579
:1007B000CF93DF9300D01F92CDB7DEB79B838A83A0
:1007C0008A819B81892B19F41B821A8203C01B82A8
:1007D0001A8200008A819B81892B21F480913E013D
:1007E0008983000085E290E02981FC0120838A81D1
:1007F0009B810F900F900F90DF91CF910895CF9331
:10080000DF93CDB7DEB72C970FB6F894DEBF0FBEDF
:10081000CDBF6D837E838F83988729873A874B87E7
:100820005C878D819E81AF81B88529853A854B850E
:100830005C85BC01CD010E94E205DC01CB0189830E
:100840009A83AB83BC8389819A81AB81BC81892BDC
:100850008A2B8B2B29F489859A85AB85BC8511C0A1
:1008600089859A85AB85BC858D839E83AF83B88748
:1008700089819A81AB81BC8189879A87AB87BC8744
:10088000D0CFBC01CD012C960FB6F894DEBF0FBEC1
:10089000CDBFDF91CF9108950F931F93CF93DF9337
:1008A000CDB7DEB72F970FB6F894DEBF0FBECDBF22
:1008B00084E290E02FEFFC01208385E290E0FC01D0
:1008C000108287E290E020EFFC01208388E290E034
:1008D0002FE0FC01208386E0E2E1F1E0DE011A96E0
:1008E00001900D928A95E1F783E090E098878F83DD
:1008F0008FEF8987898580931D0189E190E0A0E0D1
:10090000B0E080931E0190931F01A0932001B0934B
:10091000210180911E0190911F01A0912001B091B1
:1009200021018093220190932301A0932401B0938D
:1009300025018DE692E09093270180932601898519
:100940008093280184EF91E0A0E0B0E0809329013A
:1009500090932A01A0932B01B0932C01809129013F
:1009600090912A01A0912B01B0912C0180932D012F
:1009700090932E01A0932F01B09330018CE993E066
:1009800090933201809331018985809333018AE00D
:1009900090E0A0E0B0E08093340190933501A09303
:1009A0003601B09337018091340190913501A091C7
:1009B0003601B09137018093380190933901A093AB
:1009C0003A01B0933B0188ED93E090933D01809311
:1009D0003C018A859B85FC0181819281A381B48140
:1009E0008B839C83AD83BE8381E090E09A8389836F
:1009F00025C089819A81880F991F9E012F5F3F4FE3
:100A0000820F931F0996FC0180819181FC01218155
:100A10003281438154818B819C81AD81BE81BC0137
:100A2000CD010E94FF03DC01CB018B839C83AD834E
:100A3000BE8389819A8101969A83898329813A812B
:100A40008F81988528173907A0F28B819C81AD8111
:100A5000BE81BC01CD010E9451010E94A1001A82F9
:100A60001982A0C089819A81880F991F9E012F5FEA
:100A70003F4F820F931F0996FC0180819181FC01F9
:100A8000258136814781508589819A81880F991FF8
:100A9000BE016F5F7F4F860F971F0996FC01808113
:100AA0009181FC0181819281A381B481281739074A
:100AB0004A075B0709F045C089819A81880F991F11
:100AC0009E012F5F3F4F820F931F0996FC0100810B
:100AD000118189819A81880F991F9E012F5F3F4F55
:100AE000820F931F0996FC0180819181FC01218571
:100AF000328589819A81880F991FAE014F5F5F4FC0
:100B0000840F951F0996FC0180819181FC018081F1
:100B1000082E000C990BF9010995F8018083898151
:100B20009A81880F991F9E012F5F3F4F820F931F5D
:100B30000996FC0180819181FC0115821682178241
:100B4000108689819A81880F991F9E012F5F3F4FE0
:100B5000820F931F0996FC016081718189819A81BE
:100B6000880F991F9E012F5F3F4F820F931F099699
:100B7000FC0180819181FC0125813681478150856E
:100B80008B819C81AD81BE81820F931FA41FB51FF5
:100B9000FB0185839683A783B08789819A8101961B
:100BA0009A83898329813A818F819885281739070B
:100BB00008F458CF0000809118018823E1F31092C7
:100BC00018014DCFA1E21A2EAA1BBB1BFD010DC0BF
:100BD000AA1FBB1FEE1FFF1FA217B307E407F507ED
:100BE00020F0A21BB30BE40BF50B661F771F881FC9
:100BF000991F1A9469F760957095809590959B015F
:100C0000AC01BD01CF010895EE0FFF1F0024001CB1
:0E0C10000BBE0790F691E02D0994F894FFCFEB
:100C1E00000000020000000078000000000001004B
:080C2E0000001D012801330143
:00000001FF
