:100000000C948B000C94AA000C94AA000C94AA00E7
:100010000C94AA000C94AA000C94AA000C94AA00B8
:100020000C94AA000C94AA000C94AA000C94AA00A8
:100030000C94AA000C94AA000C94AA000C94AA0098
:100040000C94AA000C94AA000C94AA000C94AA0088
:100050000C94AA000C94AA000C94AA000C94AA0078
:100060000C94AA000C94AA000C94AA000C94AA0068
:100070000C94AA000C94AA000C94AA000C94AA0058
:100080000C94AA000C94AA000C94AA00E002450368
:100090004503450345034503450345034503450320
:1000A0004503450345034503450345034503450310
:1000B0004503450345034503450345034503450300
:1000C00045034503450345034503450345034503F0
:1000D00045033F03450345034503450345034503E6
:1000E0003403450345034503450345033A03E6024C
:1000F000EC02F202F802FE0204030A0310031603E4
:1001000045034503450345034503450345031C03D8
:10011000220328032E0311241FBECFEFD0E4DEBF3D
:10012000CDBF11E0A0E0B1E0EEEAF6E000E00BBFE9
:1001300002C007900D92AE30B107D9F721E0AEE0D2
:10014000B1E001C01D92A131B207E1F70E94AF02F8
:100150000C9455030C940000CF93DF9300D01F92B2
:10016000CDB7DEB789837B836A8389818A3031F496
:100170008A819B81BC018DE00E94AC0080EC90E004
:10018000FC018081882F90E080729927892BB1F340
:1001900086EC90E02981FC01208380E090E00F90C4
:1001A0000F900F90DF91CF910895CF93DF9300D000
:1001B000CDB7DEB79A83898389819A81009719F038
:1001C000019761F00EC09091100181E0992309F030
:1001D00080E0882F90E09A83898306C01A82198272
:1001E00003C01A821982000089819A81009759F010
:1001F000019751F490910E0181E0992309F080E07C
:1002000080930E0101C0000089819A810F900F90A8
:10021000DF91CF910895CF93DF9300D0CDB7DEB7B4
:100220009A83898389819A81009719F0019761F0F7
:100230000EC09091100181E0992309F080E0882F91
:1002400090E09A83898306C01A82198203C01A82B9
:100250001982000089819A81009759F0019751F421
:1002600090910F0181E0992309F080E080930E01C5
:1002700001C0000089819A810F900F90DF91CF918A
:100280000895CF93DF9300D01F92CDB7DEB79B8345
:100290008A838A819B81892B19F41B821A8203C06D
:1002A0001B821A8200008A819B81892B61F48091D4
:1002B0000F01882F90E0880F991F982F80910E01D1
:1002C000892B8983000085E290E02981FC0120834D
:1002D0008A819B810F900F900F90DF91CF910895AD
:1002E000CF93DF9300D01F92CDB7DEB79B838A8375
:1002F00080E290E0FC018081882F90E08170992756
:1003000021E0892B09F020E029838A819B818130BB
:10031000910579F08230910589F0892BC9F481E04B
:100320009981913009F080E0882F90E09B838A8347
:1003300012C082E090E09B838A830DC081E09981A6
:10034000992309F480E0882F90E09B838A8303C07F
:100350001B821A8200008A819B81019749F4909147
:10036000100181E0992309F080E08093100101C021
:1003700000008A819B810F900F900F90DF91CF91A9
:100380000895CF93DF9300D0CDB7DEB789836A831A
:100390008981882F90E02A81222F30E002C0959534
:1003A00087952A95E2F78170992721E0892B09F436
:1003B00020E0822F0F900F90DF91CF910895CF937F
:1003C000DF93CDB7DEB788E290E02FEEFC0120830B
:1003D000000086E290E0FC01808160E00E94C101A3
:1003E000882311F481E3B8C086E290E0FC018081AB
:1003F00060E00E94C101882311F484E3ADC086E26D
:1004000090E0FC01808160E00E94C101882311F42A
:1004100087E3A2C086E290E0FC01808160E00E9458
:10042000C101882311F48AE297C088E290E02FEDA1
:10043000FC012083000086E290E0FC01808160E006
:100440000E94C101882311F482E386C086E290E015
:10045000FC01808160E00E94C101882311F485E3E2
:100460007BC086E290E0FC01808160E00E94C101D7
:10047000882311F488E370C086E290E0FC0180815B
:1004800060E00E94C101882311F480E365C088E226
:1004900090E02FEBFC012083000086E290E0FC015D
:1004A000808160E00E94C101882311F483E354C07D
:1004B00086E290E0FC01808160E00E94C101882317
:1004C00011F486E349C086E290E0FC01808160E09F
:1004D0000E94C101882311F489E33EC086E290E0C6
:1004E000FC01808160E00E94C101882311F483E255
:1004F00033C088E290E02FE7FC012083000086E211
:1005000090E0FC01808160E00E94C101882311F429
:1005100081E422C086E290E0FC01808160E00E94DC
:10052000C101882311F482E417C086E290E0FC0147
:10053000808160E00E94C101882311F483E40CC033
:1005400086E290E0FC01808160E00E94C101882386
:1005500011F484E401C080E0DF91CF910895CF933E
:10056000DF931F92CDB7DEB784E290E02FEFFC015E
:10057000208385E290E0FC01108287E290E020EF8A
:10058000FC01208388E290E02FE0FC0120830E94A0
:10059000DF0189838981882F90E0092E000CAA0B46
:1005A000BB0B40E050E024E430E0841B950B28179F
:1005B000390708F46AC08A5B9F4FFC010C944C0316
:1005C00085E290E02FE1FC01208365C085E290E0A8
:1005D00021E0FC0120835FC085E290E022E0FC0185
:1005E000208359C085E290E023E0FC01208353C0C2
:1005F00085E290E024E0FC0120834DC085E290E09C
:1006000025E0FC01208347C085E290E026E0FC0164
:10061000208341C085E290E027E0FC0120833BC0BD
:1006200085E290E028E0FC01208335C085E290E07F
:1006300029E0FC0120832FC085E290E02AE0FC0144
:10064000208329C085E290E02BE0FC01208323C0B9
:1006500085E290E02CE0FC0120831DC085E290E063
:100660002DE0FC01208317C085E290E02EE0FC0124
:10067000208311C085E290E0FC0110820CC085E26D
:1006800090E02FE0FC01208306C085E290E02BE1A2
:10069000FC01208300007BCFEE0FFF1F0024001C15
:0E06A0000BBE0790F691E02D0994F894FFCF61
:0E06AE000000000200000000AC000000000090
:00000001FF
