:100000000C9446000C9465000C9465000C946500FB
:100010000C9465000C9465000C9465000C946500CC
:100020000C9465000C9465000C9465000C946500BC
:100030000C9465000C94DE000C9465000C94650033
:100040000C9465000C9465000C9465000C9465009C
:100050000C9465000C9465000C9465000C9465008C
:100060000C9465000C9465000C9465000C9465007C
:100070000C9465000C9465000C9465000C9465006C
:100080000C9465000C9465000C94650011241FBE4F
:10009000CFEFD0E4DEBFCDBF11E0A0E0B1E0E6EEEF
:1000A000FAE000E00BBF02C007900D92AA31B10741
:1000B000D9F721E0AAE1B1E001C01D92AE34B20748
:1000C000E1F70E9495030C9471050C940000CF9306
:1000D000DF9300D01F92CDB7DEB789837B836A831D
:1000E00089818A3031F48A819B81BC018DE00E9434
:1000F000670080EC90E0FC018081882F90E08072A6
:100100009927892BB1F386EC90E02981FC012083AB
:1001100080E090E00F900F900F90DF91CF910895C5
:10012000CF93DF93CDB7DEB781E890E02BE0FC0101
:10013000208388E890E02DE730E0FC0131832083C4
:100140008FE690E022E0FC01208384E890E0FC014F
:100150001182108280910E0190910F01A0911001E7
:10016000B091110180931B0190931C01A0931D017C
:10017000B0931E018FE590E02FE530E0F90120817A
:100180002068FC0120830000DF91CF910895CF9378
:10019000DF93CDB7DEB781E890E0FC01108200006C
:1001A000DF91CF910895CF93DF93CDB7DEB781E094
:1001B00080931A010000DF91CF9108951F920F9252
:1001C00000905F000F92112400905B000F922F931C
:1001D0003F934F935F936F937F938F939F93AF93CF
:1001E000BF93EF93FF93CF93DF93CDB7DEB78091AB
:1001F0001B0190911C01A0911D01B0911E0101975E
:10020000A109B10980931B0190931C01A0931D01CA
:10021000B0931E0180911B0190911C01A0911D01C2
:10022000B0911E01892B8A2B8B2B91F40E94D30055
:1002300080910E0190910F01A0911001B0911101D8
:1002400080931B0190931C01A0931D01B0931E018C
:100250000000DF91CF91FF91EF91BF91AF919F91FE
:100260008F917F916F915F914F913F912F910F905F
:1002700000925B000F9000925F000F901F90189506
:10028000CF93DF9300D000D0CDB7DEB769837A83F8
:100290008B839C8389819A81AB81BC8180930E0181
:1002A00090930F01A0931001B093110180910E0162
:1002B00090910F01A0911001B091110180931B0149
:1002C00090931C01A0931D01B0931E0100000F909C
:1002D0000F900F900F90DF91CF910895CF93DF9300
:1002E00000D0CDB7DEB79A83898389819A81009740
:1002F00019F0019761F00EC09091210181E09923DE
:1003000009F080E0882F90E09A83898306C01A82E2
:10031000198203C01A821982000089819A8100978C
:1003200059F0019751F490911F0181E0992309F050
:1003300080E080931F0101C0000089819A810F90A5
:100340000F90DF91CF910895CF93DF9300D0CDB779
:10035000DEB79A83898389819A81009719F0019782
:1003600061F00EC09091210181E0992309F080E0B5
:10037000882F90E09A83898306C01A82198203C06D
:100380001A821982000089819A81009759F0019799
:1003900051F49091200181E0992309F080E080934D
:1003A0001F0101C0000089819A810F900F90DF9199
:1003B000CF910895CF93DF9300D01F92CDB7DEB7D2
:1003C0009B838A838A819B81892B19F41B821A82E1
:1003D00003C01B821A8200008A819B81892B61F4F1
:1003E00080912001882F90E0880F991F982F80918D
:1003F0001F01892B8983000085E290E02981FC019F
:1004000020838A819B810F900F900F90DF91CF9175
:100410000895CF93DF9300D01F92CDB7DEB79B83B3
:100420008A8380E290E0FC018081882F90E08170D7
:10043000992721E0892B09F020E029838A819B817B
:100440008130910579F08230910589F0892BC9F4CA
:1004500081E09981913009F080E0882F90E09B83C2
:100460008A8312C082E090E09B838A830DC081E082
:100470009981992309F480E0882F90E09B838A83F7
:1004800003C01B821A8200008A819B81019749F474
:100490009091210181E0992309F080E0809321016E
:1004A00001C000008A819B810F900F900F90DF9117
:1004B000CF910895CF93DF9300D0CDB7DEB7898376
:1004C0006A838981882F90E02A81222F30E002C040
:1004D000959587952A95E2F78170992721E0892BD8
:1004E00009F420E0822F0F900F90DF91CF910895B3
:1004F000CF93DF93CDB7DEB788E290E02FEEFC011B
:100500002083000086E290E0FC01808160E00E9490
:100510005A02882311F481E3B8C086E290E0FC011E
:10052000808160E00E945A02882311F484E3ADC008
:1005300086E290E0FC01808160E00E945A028823FC
:1005400011F487E3A2C086E290E0FC01808160E0C4
:100550000E945A02882311F48AE297C088E290E050
:100560002FEDFC012083000086E290E0FC018081F9
:1005700060E00E945A02882311F482E386C086E27A
:1005800090E0FC01808160E00E945A02882311F40F
:1005900085E37BC086E290E0FC01808160E00E9400
:1005A0005A02882311F488E370C086E290E0FC01CF
:1005B000808160E00E945A02882311F480E365C0C4
:1005C00088E290E02FEBFC012083000086E290E0BF
:1005D000FC01808160E00E945A02882311F483E3C9
:1005E00054C086E290E0FC01808160E00E945A02E3
:1005F000882311F486E349C086E290E0FC01808103
:1006000060E00E945A02882311F489E33EC086E22A
:1006100090E0FC01808160E00E945A02882311F47E
:1006200083E233C088E290E02FE7FC0120830000E2
:1006300086E290E0FC01808160E00E945A028823FB
:1006400011F481E422C086E290E0FC01808160E048
:100650000E945A02882311F482E417C086E290E0D7
:10066000FC01808160E00E945A02882311F483E437
:100670000CC086E290E0FC01808160E00E945A029A
:10068000882311F484E401C080E0DF91CF910895C4
:10069000CF93DF93CDB7DEB72C970FB6F894DEBFBC
:1006A0000FBECDBF6D837E838F83988729873A875E
:1006B0004B875C878D819E81AF81B88529853A857E
:1006C0004B855C85BC01CD010E944F05DC01CB014F
:1006D00089839A83AB83BC8389819A81AB81BC81F6
:1006E000892B8A2B8B2B29F489859A85AB85BC8530
:1006F00011C089859A85AB85BC858D839E83AF8328
:10070000B88789819A81AB81BC8189879A87AB87B9
:10071000BC87D0CFBC01CD012C960FB6F894DEBFBC
:100720000FBECDBFDF91CF9108950F931F93CF934D
:10073000DF93CDB7DEB763970FB6F894DEBF0FBE79
:10074000CDBF81E290E0FC01108282E290E02FEFC9
:10075000FC01208384E290E02FEFFC01208385E2FE
:1007600090E0FC01108288E0E2E1F1E0DE011C96FD
:1007700001900D928A95E1F784E090E09A8789874D
:100780008FEF8B878B858093220182E390E0A0E03E
:10079000B0E08093230190932401A0932501B093AE
:1007A00026018091230190912401A0912501B0910F
:1007B00026018093270190932801A0932901B093EB
:1007C0002A0189E092E090932C0180932B018B8584
:1007D00080932D0184EF91E0A0E0B0E080932E01A2
:1007E00090932F01A0933001B093310180912E019D
:1007F00090912F01A0913001B0913101809332018D
:1008000090933301A0933401B09335018EE691E0CB
:1008100090933701809336018B858093380188EE61
:1008200093E0A0E0B0E08093390190933A01A09367
:100830003B01B0933C018091390190913A01A09124
:100840003B01B0913C0180933D0190933E01A09308
:100850003F01B093400184EA91E09093420180937C
:1008600041018B85809343018AE090E0A0E0B0E0F5
:100870008093440190934501A0934601B0934701B2
:100880008091440190914501A0914601B0914701AA
:100890008093480190934901A0934A01B0934B0182
:1008A0008AED91E090933701809336018C859D8588
:1008B000FC0181819281A381B48189839A83AB8376
:1008C000BC8381E090E09E838D8325C08D819E81D5
:1008D000880F991F9E012F5F3F4F820F931F0B962A
:1008E000FC0180819181FC0121813281438154810D
:1008F00089819A81AB81BC81BC01CD010E944803F2
:10090000DC01CB0189839A83AB83BC838D819E817B
:1009100001969E838D832D813E8189859A85281736
:100920003907A0F289819A81AB81BC81BC01CD01DC
:100930000E9440010E94900018861F82A0C08F81F3
:100940009885880F991F9E012F5F3F4F820F931F3D
:100950000B96FC0180819181FC01258136814781C4
:1009600050858F819885880F991FBE016F5F7F4FDB
:10097000860F971F0B96FC0180819181FC0181817C
:100980009281A381B481281739074A075B0709F0D0
:1009900045C08F819885880F991F9E012F5F3F4F1B
:1009A000820F931F0B96FC01008111818F81988526
:1009B000880F991F9E012F5F3F4F820F931F0B9649
:1009C000FC0180819181FC01218532858F81988590
:1009D000880F991FAE014F5F5F4F840F951F0B96D5
:1009E000FC0180819181FC018081082E000C990B13
:1009F000F9010995F80180838F819885880F991FE7
:100A00009E012F5F3F4F820F931F0B96FC01808149
:100A10009181FC0115821682178210868F8198853C
:100A2000880F991F9E012F5F3F4F820F931F0B96D8
:100A3000FC01608171818F819885880F991F9E01CB
:100A40002F5F3F4F820F931F0B96FC018081918196
:100A5000FC01258136814781508589819A81AB814E
:100A6000BC81820F931FA41FB51FFB018583968352
:100A7000A783B0878F819885019698878F832F8170
:100A8000388589859A852817390708F458CF0000DA
:100A900080911A018823E1F310921A014DCFA1E24F
:100AA0001A2EAA1BBB1BFD010DC0AA1FBB1FEE1FE8
:100AB000FF1FA217B307E407F50720F0A21BB30B33
:100AC000E40BF50B661F771F881F991F1A9469F7AF
:100AD00060957095809590959B01AC01BD01CF010B
:060AE0000895F894FFCF19
:100AE6000000000200000000670000000000010096
:0A0AF600000022012D013801430128
:00000001FF
