:100000000C9457000C9476000C9476000C947600B7
:100010000C9476000C9476000C9476000C94760088
:100020000C9476000C9476000C9476000C94760078
:100030000C9476000C94EF000C9476000C947600EF
:100040000C9476000C9476000C9476000C94760058
:100050000C9476000C9476000C9476000C94760048
:100060000C9476000C9476000C9476000C94760038
:100070000C9476000C9476000C9476000C94760028
:100080000C9476000C9476000C9476008B0292020D
:10009000A902F90219033903590379039903C80323
:1000A000E503CE03D103D503D903DD03E103112416
:1000B0001FBECFEFD0E4DEBFCDBF11E0A0E0B1E0C6
:1000C000EEE4F8E000E00BBF02C007900D92A23111
:1000D000B107D9F721E0A2E1B1E001C01D92AC3136
:1000E000B207E1F70E94EF030C9425040C94000082
:1000F000CF93DF9300D01F92CDB7DEB789837B8388
:100100006A8389818A3031F48A819B81BC018DE0C8
:100110000E94780080EC90E0FC018081882F90E0C4
:1001200080729927892BB1F386EC90E02981FC013C
:10013000208380E090E00F900F900F90DF91CF919F
:100140000895CF93DF93CDB7DEB781E890E02BE041
:10015000FC01208388E890E02DE730E0FC0131834A
:1001600020838FE690E022E0FC01208384E890E089
:10017000FC011182108280910E0190910F01A091DB
:100180001001B09111018093130190931401A09379
:100190001501B09316018FE590E02FE530E0F901ED
:1001A00020812068FC0120830000DF91CF91089519
:1001B000CF93DF93CDB7DEB781E890E0FC011082EA
:1001C0000000DF91CF910895CF93DF93CDB7DEB7D5
:1001D00081E0809312010000DF91CF9108951F927A
:1001E0000F9200905F000F92112400905B000F921D
:1001F0002F933F934F935F936F937F938F939F932F
:10020000AF93BF93EF93FF93CF93DF93CDB7DEB759
:100210008091130190911401A0911501B0911601E4
:100220000197A109B1098093130190931401A09340
:100230001501B09316018091130190911401A091C2
:100240001501B0911601892B8A2B8B2B91F40E94FA
:10025000E40080910E0190910F01A0911001B091E6
:1002600011018093130190931401A0931501B09391
:1002700016010000DF91CF91FF91EF91BF91AF91F7
:100280009F918F917F916F915F914F913F912F91AE
:100290000F9000925B000F9000925F000F901F90F4
:1002A0001895CF93DF9300D000D0CDB7DEB7698328
:1002B0007A838B839C8389819A81AB81BC81809373
:1002C0000E0190930F01A0931001B0931101809142
:1002D0000E0190910F01A0911001B0911101809336
:1002E000130190931401A0931501B093160100001F
:1002F0000F900F900F900F90DF91CF910895CF93B3
:10030000DF9300D0CDB7DEB789836A838981882FD8
:1003100090E02A81222F30E002C0959587952A959A
:10032000E2F78170992721E0892B09F420E0822FE0
:100330000F900F90DF91CF910895CF93DF93CDB7BA
:10034000DEB788E290E02FEEFC012083000086E219
:1003500090E0FC01808160E00E947F01882311F41D
:1003600081E3B8C086E290E0FC01808161E00E94F8
:100370007F01882311F484E3ADC086E290E0FC01A4
:10038000808162E00E947F01882311F487E3A2C08C
:1003900086E290E0FC01808163E00E947F01882377
:1003A00011F48AE297C088E290E02FEDFC012083EF
:1003B000000086E290E0FC01808160E00E947F0105
:1003C000882311F482E386C086E290E0FC018081FC
:1003D00061E00E947F01882311F485E37BC086E2FF
:1003E00090E0FC01808162E00E947F01882311F48B
:1003F00088E370C086E290E0FC01808163E00E94A7
:100400007F01882311F480E365C088E290E02FEB40
:10041000FC012083000086E290E0FC01808160E026
:100420000E947F01882311F483E354C086E290E0A8
:10043000FC01808161E00E947F01882311F486E342
:1004400049C086E290E0FC01808162E00E947F0169
:10045000882311F489E33EC086E290E0FC018081AC
:1004600063E00E947F01882311F483E233C088E2B5
:1004700090E02FE7FC012083000086E290E0FC0181
:10048000808160E00E947F01882311F481E422C012
:1004900086E290E0FC01808161E00E947F01882378
:1004A00011F482E417C086E290E0FC01808162E0F2
:1004B0000E947F01882311F483E40CC086E290E05F
:1004C000FC01808163E00E947F01882311F484E4B1
:1004D00001C080E0DF91CF910895CF93DF93CDB736
:1004E000DEB70E949D0180931701809119019091C0
:1004F0001A01CC01A0E0B0E040E050E028E030E09C
:10050000841B950B2817390708F425C18A5B9F4F78
:10051000FC010C941C0481E090E090931A018093FC
:10052000190121C180911701833239F482E090E0F2
:1005300090931A018093190115C18091170183329C
:1005400009F410C181E090E090931A0180931901A1
:1005500009C180911701882309F043C080911B01D4
:10056000882F90E082309105F9F0833091052CF4CA
:10057000009761F0019789F0F6C08430910511F180
:1005800084309105C4F0059721F1EDC083E090E03F
:1005900090931A01809319012BC084E090E090930E
:1005A0001A018093190124C085E090E090931A010C
:1005B000809319011DC086E090E090931A0180930A
:1005C000190116C087E090E090931A0180931901F9
:1005D0000FC088E090E090931A0180931901000009
:1005E00007C082E090E090931A0180931901BBC08C
:1005F000BAC080911701813351F481E080931B01CF
:1006000082E090E090931A0180931901ACC0809130
:100610001701882339F483E090E090931A018093C6
:100620001901A1C081E090E090931A018093190113
:100630009AC080911701823351F482E080931B01AC
:1006400082E090E090931A01809319018CC0809110
:100650001701882339F484E090E090931A01809385
:10066000190181C081E090E090931A0180931901F3
:100670007AC080911701833351F483E080931B018A
:1006800082E090E090931A01809319016CC08091F0
:100690001701882339F485E090E090931A01809344
:1006A000190161C081E090E090931A0180931901D3
:1006B0005AC080911701843351F484E080931B0168
:1006C00082E090E090931A01809319014CC08091D0
:1006D0001701882339F486E090E090931A01809303
:1006E000190141C081E090E090931A0180931901B3
:1006F0003AC080911701853351F485E080931B0146
:1007000082E090E090931A01809319012CC08091AF
:100710001701882339F487E090E090931A018093C1
:10072000190121C081E090E090931A018093190192
:100730001AC080911701882339F081E090E09093EE
:100740001A01809319010FC088E090E090931A017C
:100750008093190108C081E090E090931A01809382
:10076000190101C000008091190190911A01CC017A
:10077000A0E0B0E041E050E027E030E0841B950BC2
:100780002817390710F1815B9F4FFC010C941C0462
:1007900010921B0180E18093180117C0109218017C
:1007A00014C081E08093180110C082E0809318018A
:1007B0000CC084E08093180108C088E08093180181
:1007C00004C08FE180931801000085E290E0209141
:1007D0001801FC0120830000DF91CF910895CF9391
:1007E000DF93CDB7DEB784E290E02FEFFC012083EA
:1007F00085E290E0FC01108287E290E020EFFC01AE
:10080000208388E290E02FE0FC01208310921A01FF
:10081000109219016AEF70E080E090E00E945101AF
:100820000E94A1000E946D020000809112018823A5
:10083000E1F310921201F6CFEE0FFF1F0024001C0F
:0E0840000BBE0790F691E02D0994F894FFCFBF
:10084E00000000020000000078000000000001001F
:02085E00000098
:00000001FF
