:100000000C9457000C9476000C9476000C947600B7
:100010000C9476000C9476000C9476000C94760088
:100020000C9476000C9476000C9476000C94760078
:100030000C9476000C94B6010C9476000C94760027
:100040000C9476000C9476000C9476000C94760058
:100050000C9476000C9476000C9476000C94760048
:100060000C9476000C9476000C9476000C94760038
:100070000C9476000C9476000C9476000C94760028
:100080000C9476000C9476000C947600540359037B
:100090006C03AD03C703E103FB0315042F045904EC
:1000A0005C045C045C045C045C045C045C0411247B
:1000B0001FBECFEFD0E4DEBFCDBF11E0A0E0B1E0C6
:1000C000EAE2F4E100E00BBF02C007900D92AC3110
:1000D000B107D9F721E0ACE1B1E001C01D92A5362E
:1000E000B207E1F70E9442060C94130A0C94000038
:1000F000CF93DF9300D01F92CDB7DEB789837B8388
:100100006A8389818A3031F48A819B81BC018DE0C8
:100110000E94780080EC90E0FC018081882F90E0C4
:1001200080729927892BB1F386EC90E02981FC013C
:10013000208380E090E00F900F900F90DF91CF919F
:1001400008950F931F93CF93DF9300D000D0CDB7C6
:10015000DEB769837A838B839C838091250190919C
:100160002601A0912701B09128019C01AD01698170
:100170007A818B819C810E947F08882309F477C053
:1001800020E030E0A90169817A818B819C810E9405
:100190007F08882351F481E990E021E930E0F901FA
:1001A00020812870FC01208309C081E990E021E9C9
:1001B00030E0F90120812360FC01208328E539E348
:1001C00044E75FE369817A818B819C810E947F088B
:1001D000882344F488E990E02FEF3FEFFC0131835E
:1001E000208334C020E034E244EF56E469817A8110
:1001F0008B819C810E94A109181634F488E990E053
:10020000FC011182108222C008E910E020E030E0F9
:1002100040E053E469817A818B819C810E94A60928
:10022000DC01CB019C01AD0160E074E284EF9AE453
:100230000E948408DC01CB01BC01CD010E94F608BC
:10024000DC01CB010197F8019183808384E990E080
:10025000FC011182108289819A81AB81BC818093DB
:10026000250190932601A0932701B0932801000057
:100270000F900F900F900F90DF91CF911F910F91E2
:100280000895CF93DF93CDB7DEB780E990E020E407
:10029000FC01208381E990E02BE0FC01208360E0F9
:1002A00070E0CB010E94A1000000DF91CF91089582
:1002B000CF93DF93CDB7DEB780E990E0FC011082E9
:1002C00081E990E0FC0110820000DF91CF91089558
:1002D000CF93DF93CDB7DEB781E890E02BE0FC0150
:1002E000208388E890E02DE730E0FC013183208313
:1002F0008FE690E022E0FC01208384E890E0FC019E
:100300001182108280910E0190910F01A091100135
:10031000B091110180931D0190931E01A0931F01C4
:10032000B09320018FE590E02FE530E0F9012081C6
:100330002068FC0120830000DF91CF910895CF93C6
:10034000DF93CDB7DEB781E890E0FC0110820000BA
:10035000DF91CF910895CF93DF93CDB7DEB781E0E2
:1003600080931C010000DF91CF9108951F920F929E
:1003700000905F000F92112400905B000F922F936A
:100380003F934F935F936F937F938F939F93AF931D
:10039000BF93EF93FF93CF93DF93CDB7DEB78091F9
:1003A0001D0190911E01A0911F01B09120010197A4
:1003B000A109B10980931D0190931E01A0931F0113
:1003C000B093200180911D0190911E01A0911F0109
:1003D000B0912001892B8A2B8B2B91F40E94AB01C9
:1003E00080910E0190910F01A0911001B091110127
:1003F00080931D0190931E01A0931F01B0932001D3
:100400000000DF91CF91FF91EF91BF91AF919F914C
:100410008F917F916F915F914F913F912F910F90AD
:1004200000925B000F9000925F000F901F90189554
:10043000CF93DF9300D000D0CDB7DEB769837A8346
:100440008B839C8389819A81AB81BC8180930E01CF
:1004500090930F01A0931001B093110180910E01B0
:1004600090910F01A0911001B091110180931D0195
:1004700090931E01A0931F01B093200100000F90E4
:100480000F900F900F90DF91CF910895CF93DF934E
:1004900000D0CDB7DEB789836A838981882F90E049
:1004A0002A81222F30E002C0959587952A95E2F7A0
:1004B0008170992721E0892B09F420E0822F0F9089
:1004C0000F90DF91CF910895CF93DF93CDB7DEB733
:1004D00088E290E02FEEFC012083000086E290E0AD
:1004E000FC01808160E00E944602882311F481E3D0
:1004F000B8C086E290E0FC01808161E00E94460283
:10050000882311F484E3ADC086E290E0FC01808191
:1005100062E00E944602882311F487E3A2C086E2CB
:1005200090E0FC01808163E00E944602882311F480
:100530008AE297C088E290E02FEDFC012083000062
:1005400086E290E0FC01808160E00E944602882300
:1005500011F482E386C086E290E0FC01808161E0D4
:100560000E944602882311F485E37BC086E290E076
:10057000FC01808162E00E944602882311F488E336
:1005800070C086E290E0FC01808163E00E94460238
:10059000882311F480E365C088E290E02FEBFC0132
:1005A0002083000086E290E0FC01808160E00E94F0
:1005B0004602882311F483E354C086E290E0FC01F4
:1005C000808161E00E944602882311F486E349C0DD
:1005D00086E290E0FC01808162E00E94460288236E
:1005E00011F489E33EC086E290E0FC01808163E083
:1005F0000E944602882311F483E233C088E290E02F
:100600002FE7FC012083000086E290E0FC0180815E
:1006100060E00E944602882311F481E422C086E251
:1006200090E0FC01808161E00E944602882311F481
:1006300082E417C086E290E0FC01808162E00E94C3
:100640004602882311F483E40CC086E290E0FC01AA
:10065000808163E00E944602882311F484E401C093
:1006600080E0DF91CF910895CF93DF9300D0CDB795
:10067000DEB79A8389830E94640280932101898175
:100680009A81092E000CAA0BBB0B40E050E028E039
:1006900030E0841B950B2817390708F4F0C08A5BFB
:1006A0009F4FFC010C94760881E090E09A83898347
:1006B000ECC080912101833229F482E090E09A839A
:1006C0008983E2C080912101833209F4DDC081E099
:1006D00090E09A838983D8C0809121018823B9F55D
:1006E00080916401882F90E082309105D9F08330A9
:1006F00091052CF4009761F0019779F0C6C0843021
:100700009105D1F08430910594F00597D1F0BDC0EA
:1007100083E090E09A8389831FC084E090E09A830D
:1007200089831AC085E090E09A83898315C086E0AA
:1007300090E09A83898310C087E090E09A83898350
:100740000BC088E090E09A838983000005C082E0B6
:1007500090E09A83898399C098C080912101813368
:1007600041F481E08093640182E090E09A83898380
:100770008CC080912101882329F483E090E09A8342
:10078000898383C081E090E09A8389837EC08091D1
:100790002101823341F482E08093640182E090E0A1
:1007A0009A83898372C080912101882329F484E08F
:1007B00090E09A83898369C081E090E09A8389837D
:1007C00064C080912101833341F483E0809364010C
:1007D00082E090E09A83898358C080912101882328
:1007E00029F485E090E09A8389834FC081E090E00E
:1007F0009A8389834AC080912101843341F484E043
:100800008093640182E090E09A8389833EC0809166
:100810002101882329F486E090E09A83898335C0FA
:1008200081E090E09A83898330C0809121018533F3
:1008300041F485E08093640182E090E09A838983AB
:1008400024C080912101882329F487E090E09A83D5
:1008500089831BC081E090E09A83898316C08091D0
:100860002101882339F01092640181E090E09A839D
:1008700089830BC088E090E09A83898306C081E079
:1008800090E09A83898301C0000089819A81092EB2
:10089000000CAA0BBB0B41E050E027E030E0841BCA
:1008A000950B2817390740F0815B9F4FFC010C9492
:1008B000760810926401000089819A810F900F9050
:1008C000DF91CF910895CF93DF9300D0CDB7DEB7FE
:1008D0009A83898389819A81009719F0019761F041
:1008E00016C09091640181E0953009F080E0882F76
:1008F00090E09A8389830EC09091640181E09530E5
:1009000009F080E0882F90E09A83898303C01A82DF
:100910001982000089819A81009719F0019721F0CE
:1009200007C01092600104C081E080936001000064
:1009300089819A810F900F90DF91CF910895CF9385
:10094000DF9300D0CDB7DEB79A83898380E290E051
:10095000FC01808180958F708093210189819A812B
:10096000009719F0019789F024C08091210181300E
:1009700029F481E090E09A8389831EC0809121014F
:100980008130D1F01A82198217C080916201909152
:1009900063010F9728F481E090E09A8389830EC069
:1009A00080916201909163010F9740F01A82198241
:1009B00005C01A82198203C0000001C000008981AD
:1009C0009A81009719F0019769F019C0109263019C
:1009D000109262011092220160E070E0CB010E944F
:1009E000A1000DC081E0809322018091620190916D
:1009F00063010196909363018093620100008981F5
:100A00009A810F900F90DF91CF910895CF93DF934C
:100A100000D0CDB7DEB79A83898389819A818130EE
:100A20009105E9F0823091051CF4892B39F052C010
:100A30008230910549F10397E1F14CC08091220188
:100A4000813029F481E090E09A83898346C08091C7
:100A50002201882309F041C01A8219823EC0809188
:100A60002301853050F481E090E09A83898380915E
:100A700023018F5F8093230131C082E090E09A834D
:100A80008983109223012AC080912301853050F47C
:100A900082E090E09A838983809123018F5F809325
:100AA00023011CC083E090E09A8389831092230184
:100AB00015C080912301853050F483E090E09A8343
:100AC0008983809123018F5F8093230107C01A825D
:100AD000198204C01A82198201C0000089819A819A
:100AE00081309105A1F0823091051CF4892B39F0F9
:100AF0001AC08230910579F0039789F014C01092E2
:100B0000230160E070E0CB010E94A1000CC081E0F5
:100B10008093240108C082E08093240104C083E014
:100B200080932401000089819A810F900F90DF91BA
:100B3000CF910895CF93DF9300D01F92CDB7DEB74A
:100B40009B838A838A819B81892B19F41B821A8259
:100B500003C01B821A8200008A819B81892B21F4A9
:100B6000809160018983000085E290E02981FC0189
:100B7000208380912401882F90E08130910591F0AD
:100B8000823091051CF4892B39F021C08230910507
:100B900081F00397A9F01BC060E070E0CB010E94D8
:100BA000A1001BC060E070E080E793E40E94A10018
:100BB00014C060E070E08CE893E40E94A1000DC0D6
:100BC00060E070E080E793E40E94A10006C060E06E
:100BD00070E0CB010E94A10000008A819B810F90F0
:100BE0000F900F90DF91CF910895CF93DF93CDB702
:100BF000DEB72C970FB6F894DEBF0FBECDBF6D8366
:100C00007E838F83988729873A874B875C878D817E
:100C10009E81AF81B88529853A854B855C85BC016D
:100C2000CD010E945408DC01CB0189839A83AB83F8
:100C3000BC8389819A81AB81BC81892B8A2B8B2BC8
:100C400029F489859A85AB85BC8511C089859A85EB
:100C5000AB85BC858D839E83AF83B88789819A815C
:100C6000AB81BC8189879A87AB87BC87D0CFBC0119
:100C7000CD012C960FB6F894DEBF0FBECDBFDF912D
:100C8000CF9108950F931F93CF93DF93CDB7DEB726
:100C900061970FB6F894DEBF0FBECDBF81E290E042
:100CA000FC01108282E290E02FE0FC01208384E2CC
:100CB00090E02FEFFC01208385E290E0FC011082A0
:100CC00087E290E020EFFC01208388E290E02FE0B3
:100CD000FC0120830E94410160E070E0CB010E9492
:100CE000A1008AE0E2E1F1E0DE01189601900D92A8
:100CF0008A95E1F785E090E09E838D838FEF8F8367
:100D00008F818093290189E190E0A0E0B0E0809399
:100D10002A0190932B01A0932C01B0932D01809177
:100D20002A0190912B01A0912C01B0912D0180936B
:100D30002E0190932F01A0933001B093310184E3F1
:100D400093E090933301809332018F81809334013B
:100D500084EF91E0A0E0B0E08093350190933601FC
:100D6000A0933701B09338018091350190913601FD
:100D7000A0913701B09138018093390190933A01E5
:100D8000A0933B01B0933C0183E694E090933E0135
:100D900080933D018F8180933F018AE090E0A0E045
:100DA000B0E08093400190934101A0934201B09341
:100DB00043018091400190914101A0914201B09185
:100DC00043018093440190934501A0934601B09361
:100DD00047018AE995E090934901809348018F810A
:100DE00080934A0188EC90E0A0E0B0E080934B0152
:100DF00090934C01A0934D01B0934E0180914B0113
:100E000090914C01A0914D01B0914E0180934F0102
:100E100090935001A0935101B09352018FE994E057
:100E200090935401809353018F818093550188ECF6
:100E300090E0A0E0B0E08093560190935701A0931A
:100E40005801B09359018091560190915701A0919A
:100E50005801B091590180935A0190935B01A0937E
:100E60005C01B0935D0186E095E090935F01809313
:100E70005E0188859985FC0181819281A381B4817D
:100E800089839A83AB83BC8381E090E09093630174
:100E9000809362012BC08091620190916301880F61
:100EA000991F9E012F5F3F4F820F931F0796FC01F2
:100EB00080819181FC01218132814381548189812A
:100EC0009A81AB81BC81BC01CD010E94F505DC019A
:100ED000CB0189839A83AB83BC838091620190911B
:100EE00063010196909363018093620120916201F6
:100EF000309163018D819E812817390760F28981C5
:100F00009A81AB81BC81BC01CD010E9418020E9474
:100F100068011092630110926201B4C08091620175
:100F200090916301880F991F9E012F5F3F4F820FA1
:100F3000931F0796FC0180819181FC0125813681F8
:100F4000478150858091620190916301880F991FBC
:100F5000BE016F5F7F4F860F971F0796FC01808150
:100F60009181FC0181819281A381B4812817390785
:100F70004A075B0709F04DC08091620190916301BF
:100F8000880F991F9E012F5F3F4F820F931F079677
:100F9000FC01008111818091620190916301880FB1
:100FA000991F9E012F5F3F4F820F931F0796FC01F1
:100FB00080819181FC01218532858091620190912F
:100FC0006301880F991FAE014F5F5F4F840F951F1C
:100FD0000796FC0180819181FC018081082E000C24
:100FE000990BF9010995F801808380916201909134
:100FF0006301880F991F9E012F5F3F4F820F931F40
:101000000796FC0180819181FC011582168217826E
:1010100010868091620190916301880F991F9E0153
:101020002F5F3F4F820F931F0796FC0160817181F4
:101030008091620190916301880F991F9E012F5F3B
:101040003F4F820F931F0796FC0180819181FC0125
:10105000258136814781508589819A81AB81BC8108
:10106000820F931FA41FB51FFB0185839683A7835F
:10107000B087809162019091630101969093630122
:101080008093620120916201309163018D819E8184
:101090002817390708F442CF000080911C018823EB
:1010A000E1F310921C0135CFA1E21A2EAA1BBB1B43
:1010B000FD010DC0AA1FBB1FEE1FFF1FA217B30724
:1010C000E407F50720F0A21BB30BE40BF50B661F3A
:1010D000771F881F991F1A9469F7609570958095FE
:1010E00090959B01AC01BD01CF010895EE0FFF1F4C
:1010F0000024001C0BBE0790F691E02D09940E947D
:101100002C0908F481E008950E9498080C9467095E
:101110000E94600958F00E94590940F029F45F3F8D
:1011200029F00C94500951110C949B090C94560908
:101130000E94780968F39923B1F3552391F3951B25
:10114000550BBB27AA2762177307840738F09F5FE8
:101150005F4F220F331F441FAA1FA9F335D00E2E55
:101160003AF0E0E832D091505040E695001CCAF7C2
:101170002BD0FE2F29D0660F771F881FBB1F261785
:1011800037074807AB07B0E809F0BB0B802DBF015C
:10119000FF2793585F4F3AF09E3F510578F00C942B
:1011A00050090C949B095F3FE4F3983ED4F3869575
:1011B00077956795B795F7959F5FC9F7880F911D4C
:1011C0009695879597F90895E1E0660F771F881F38
:1011D000BB1F621773078407BA0720F0621B730BEB
:1011E000840BBA0BEE1F88F7E09508950E94FD0866
:1011F0006894B1110C949B0908950E94800988F0AD
:101200009F5798F0B92F9927B751B0F0E1F0660FCA
:10121000771F881F991F1AF0BA95C9F714C0B1300B
:1012200091F00E949A09B1E008950C949A09672FF1
:10123000782F8827B85F39F0B93FCCF3869577953A
:101240006795B395D9F73EF4909580957095619523
:101250007F4F8F4F9F4F0895990F0008550FAA0B8E
:10126000E0E8FEEF16161706E807F907C0F01216B9
:101270001306E407F50798F0621B730B840B950BBC
:1012800039F40A2661F0232B242B252B21F4089511
:101290000A2609F4A140A6958FEF811D811D0895AE
:1012A00097F99F6780E870E060E008959FEF80EC19
:1012B000089500240A9416161706180609060895BC
:1012C00000240A9412161306140605060895092E22
:1012D0000394000C11F4882352F0BB0F40F4BF2B91
:1012E00011F460FF04C06F5F7F4F8F4F9F4F0895D1
:1012F00057FD9058440F551F59F05F3F71F04795C7
:10130000880F97FB991F61F09F3F79F087950895AB
:10131000121613061406551FF2CF4695F1DF08C0CA
:10132000161617061806991FF1CF869571056105E7
:1013300008940895E894BB2766277727CB0197F98F
:1013400008950E942C0908F48FEF08950E94B909AE
:101350000C9467090E94590938F00E94600920F036
:10136000952311F00C9450090C94560911240C94F7
:101370009B090E94780970F3959FC1F3950F50E087
:10138000551F629FF001729FBB27F00DB11D639F37
:10139000AA27F00DB11DAA1F649F6627B00DA11DDD
:1013A000661F829F2227B00DA11D621F739FB00D83
:1013B000A11D621F839FA00D611D221F749F3327F3
:1013C000A00D611D231F849F600D211D822F762F8C
:1013D0006A2F11249F5750409AF0F1F088234AF069
:1013E000EE0FFF1FBB1F661F771F881F91505040D5
:1013F000A9F79E3F510580F00C9450090C949B096D
:101400005F3FE4F3983ED4F3869577956795B7955B
:10141000F795E7959F5FC1F7FE2B880F911D969575
:0A142000879597F90895F894FFCF1F
:10142A000000000200000000780000000000010037
:0C143A000000290134014A0155013F0166
:00000001FF
