:100000000C9446000C9465000C9465000C946500FB
:100010000C9465000C9465000C9465000C946500CC
:100020000C9465000C9465000C9465000C946500BC
:100030000C9465000C94DE000C9465000C94650033
:100040000C9465000C9465000C9465000C9465009C
:100050000C9465000C9465000C9465000C9465008C
:100060000C9465000C9465000C9465000C9465007C
:100070000C9465000C9465000C9465000C9465006C
:100080000C9465000C9465000C94650011241FBE4F
:10009000CFEFD0E4DEBFCDBF11E0A0E0B1E0E2E100
:1000A000FAE000E00BBF02C007900D92AA31B10741
:1000B000D9F721E0AAE1B1E001C01D92A134B20755
:1000C000E1F70E944F030C9407050C940000CF93B6
:1000D000DF9300D01F92CDB7DEB789837B836A831D
:1000E00089818A3031F48A819B81BC018DE00E9434
:1000F000670080EC90E0FC018081882F90E08072A6
:100100009927892BB1F386EC90E02981FC012083AB
:1001100080E090E00F900F900F90DF91CF910895C5
:10012000CF93DF93CDB7DEB781E890E02BE0FC0101
:10013000208388E890E02DE730E0FC0131832083C4
:100140008FE690E022E0FC01208384E890E0FC014F
:100150001182108280910E0190910F01A0911001E7
:10016000B091110180931B0190931C01A0931D017C
:10017000B0931E018FE590E02FE530E0F90120817A
:100180002068FC0120830000DF91CF910895CF9378
:10019000DF93CDB7DEB781E890E0FC01108200006C
:1001A000DF91CF910895CF93DF93CDB7DEB781E094
:1001B00080931A010000DF91CF9108951F920F9252
:1001C00000905F000F92112400905B000F922F931C
:1001D0003F934F935F936F937F938F939F93AF93CF
:1001E000BF93EF93FF93CF93DF93CDB7DEB78091AB
:1001F0001B0190911C01A0911D01B0911E0101975E
:10020000A109B10980931B0190931C01A0931D01CA
:10021000B0931E0180911B0190911C01A0911D01C2
:10022000B0911E01892B8A2B8B2B91F40E94D30055
:1002300080910E0190910F01A0911001B0911101D8
:1002400080931B0190931C01A0931D01B0931E018C
:100250000000DF91CF91FF91EF91BF91AF919F91FE
:100260008F917F916F915F914F913F912F910F905F
:1002700000925B000F9000925F000F901F90189506
:10028000CF93DF9300D000D0CDB7DEB769837A83F8
:100290008B839C8389819A81AB81BC8180930E0181
:1002A00090930F01A0931001B093110180910E0162
:1002B00090910F01A0911001B091110180931B0149
:1002C00090931C01A0931D01B0931E0100000F909C
:1002D0000F900F900F90DF91CF910895CF93DF9300
:1002E00000D0CDB7DEB789836A838981882F90E0FB
:1002F0002A81222F30E002C0959587952A95E2F752
:100300008170992721E0892B09F420E0822F0F903A
:100310000F90DF91CF910895CF93DF93CDB7DEB7E4
:1003200088E290E02FEEFC012083000086E290E05E
:10033000FC01808160E00E946E01882311F481E35A
:10034000B8C086E290E0FC01808161E00E946E010D
:10035000882311F484E3ADC086E290E0FC01808143
:1003600062E00E946E01882311F487E3A2C086E256
:1003700090E0FC01808163E00E946E01882311F40B
:100380008AE297C088E290E02FEDFC012083000014
:1003900086E290E0FC01808160E00E946E0188238B
:1003A00011F482E386C086E290E0FC01808161E086
:1003B0000E946E01882311F485E37BC086E290E001
:1003C000FC01808162E00E946E01882311F488E3C1
:1003D00070C086E290E0FC01808163E00E946E01C3
:1003E000882311F480E365C088E290E02FEBFC01E4
:1003F0002083000086E290E0FC01808160E00E94A2
:100400006E01882311F483E354C086E290E0FC017E
:10041000808161E00E946E01882311F486E349C067
:1004200086E290E0FC01808162E00E946E018823F8
:1004300011F489E33EC086E290E0FC01808163E034
:100440000E946E01882311F483E233C088E290E0B9
:100450002FE7FC012083000086E290E0FC01808110
:1004600060E00E946E01882311F481E422C086E2DC
:1004700090E0FC01808161E00E946E01882311F40C
:1004800082E417C086E290E0FC01808162E00E9475
:100490006E01882311F483E40CC086E290E0FC0135
:1004A000808163E00E946E01882311F484E401C01E
:1004B00080E0DF91CF910895CF93DF9300D01F921A
:1004C000CDB7DEB79B838A830E948C0189838A81A2
:1004D0009B818130910579F08230910589F0892BDB
:1004E000C9F481E09981992309F480E0882F90E094
:1004F0009B838A8312C082E090E09B838A830DC035
:1005000081E09981992309F480E0882F90E09B8312
:100510008A8303C01B821A8200008A819B818130FA
:10052000910549F08230910549F0892B41F481E031
:100530008093120104C01092120101C000008A8150
:100540009B810F900F900F90DF91CF910895CF93E3
:10055000DF9300D0CDB7DEB79A83898389819A81F2
:10056000009719F0019761F00EC09091120181E09F
:10057000992309F080E0882F90E09A83898306C050
:100580001A82198203C01A821982000089819A8115
:10059000009719F0019721F007C010921F0104C0C5
:1005A00081E080931F01000089819A810F900F9054
:1005B000DF91CF910895CF93DF9300D01F92CDB7F5
:1005C000DEB79B838A838A819B81892B19F41B82E6
:1005D0001A8203C01B821A8200008A819B81892BA8
:1005E00021F480911F018983000085E290E0298138
:1005F000FC0120838A819B810F900F900F90DF91E7
:10060000CF910895CF93DF93CDB7DEB72C970FB678
:10061000F894DEBF0FBECDBF6D837E838F83988736
:1006200029873A874B875C878D819E81AF81B8850A
:1006300029853A854B855C85BC01CD010E94E50486
:10064000DC01CB0189839A83AB83BC8389819A8146
:10065000AB81BC81892B8A2B8B2B29F489859A85C8
:10066000AB85BC8511C089859A85AB85BC858D839A
:100670009E83AF83B88789819A81AB81BC8189874A
:100680009A87AB87BC87D0CFBC01CD012C960FB623
:10069000F894DEBF0FBECDBFDF91CF9108950F93C9
:1006A0001F93CF93DF93CDB7DEB72F970FB6F89494
:1006B000DEBF0FBECDBF84E290E02FEFFC012083B0
:1006C00085E290E0FC01108287E290E020EFFC01DF
:1006D000208388E290E02FE0FC01208386E0E3E1C4
:1006E000F1E0DE011A9601900D928A95E1F783E020
:1006F00090E098878F838FEF898789858093200189
:1007000089E190E0A0E0B0E0809321019093220184
:10071000A0932301B09324018091210190912201A3
:10072000A0912301B091240180932501909326018B
:10073000A0932701B09328018CE592E090932A01C1
:1007400080932901898580932B0184EF91E0A0E0BB
:10075000B0E080932C0190932D01A0932E01B093D3
:100760002F0180912C0190912D01A0912E01B0912B
:100770002F018093300190933101A0933201B09307
:10078000330187EA92E090933501809334018985A3
:10079000809336018AE090E0A0E0B0E080933701DA
:1007A00090933801A0933901B0933A0180913701B9
:1007B00090913801A0913901B0913A0180933B01A9
:1007C00090933C01A0933D01B0933E018BED92E0EC
:1007D0009093400180933F018A859B85FC01818134
:1007E0009281A381B4818B839C83AD83BE8381E09E
:1007F00090E09A83898325C089819A81880F991F07
:100800009E012F5F3F4F820F931F0996FC0180814D
:100810009181FC0121813281438154818B819C81B2
:10082000AD81BE81BC01CD010E940203DC01CB0180
:100830008B839C83AD83BE8389819A8101969A8341
:10084000898329813A818F81988528173907A0F2F9
:100850008B819C81AD81BE81BC01CD010E94400194
:100860000E9490001A821982A0C089819A81880F03
:10087000991F9E012F5F3F4F820F931F0996FC0126
:1008800080819181FC012581368147815085898154
:100890009A81880F991FBE016F5F7F4F860F971F48
:1008A0000996FC0180819181FC0181819281A38163
:1008B000B481281739074A075B0709F045C08981C9
:1008C0009A81880F991F9E012F5F3F4F820F931FC0
:1008D0000996FC010081118189819A81880F991FF5
:1008E0009E012F5F3F4F820F931F0996FC0180816D
:1008F0009181FC012185328589819A81880F991F18
:10090000AE014F5F5F4F840F951F0996FC018081F8
:100910009181FC018081082E000C990BF901099549
:10092000F801808389819A81880F991F9E012F5F2A
:100930003F4F820F931F0996FC0180819181FC013A
:10094000158216821782108689819A81880F991FD5
:100950009E012F5F3F4F820F931F0996FC0160811C
:10096000718189819A81880F991F9E012F5F3F4F66
:10097000820F931F0996FC0180819181FC012581E2
:100980003681478150858B819C81AD81BE81820FEC
:10099000931FA41FB51FFB0185839683A783B08790
:1009A00089819A8101969A83898329813A818F81ED
:1009B00098852817390708F458CF000080911A014C
:1009C0008823E1F310921A014DCFA1E21A2EAA1B3F
:1009D000BB1BFD010DC0AA1FBB1FEE1FFF1FA217EF
:1009E000B307E407F50720F0A21BB30BE40BF50BEC
:1009F000661F771F881F991F1A9469F76095709575
:100A0000809590959B01AC01BD01CF010895F894AC
:020A1000FFCF16
:100A1200000000020000000067000000000001006A
:0A0A220000000120012B0136010045
:00000001FF
