:100000000C9446000C9465000C9465000C946500FB
:100010000C9465000C9465000C9465000C946500CC
:100020000C9465000C9465000C9465000C946500BC
:100030000C9465000C94A5010C9465000C9465006B
:100040000C9465000C9465000C9465000C9465009C
:100050000C9465000C9465000C9465000C9465008C
:100060000C9465000C9465000C9465000C9465007C
:100070000C9465000C9465000C9465000C9465006C
:100080000C9465000C9465000C94650011241FBE4F
:10009000CFEFD0E4DEBFCDBF11E0A0E0B1E0E2E2FF
:1000A000FAE000E00BBF02C007900D92A231B10749
:1000B000D9F721E0A2E1B1E001C01D92A332B2075D
:1000C000E1F70E943A030C940F050C940000CF93C3
:1000D000DF9300D01F92CDB7DEB789837B836A831D
:1000E00089818A3031F48A819B81BC018DE00E9434
:1000F000670080EC90E0FC018081882F90E08072A6
:100100009927892BB1F386EC90E02981FC012083AB
:1001100080E090E00F900F900F90DF91CF910895C5
:100120000F931F93CF93DF9300D000D0CDB7DEB7EE
:1001300069837A838B839C8380911B0190911C013E
:10014000A0911D01B0911E019C01AD0169817A81D0
:100150008B819C810E947B03882309F477C020E077
:1001600030E0A90169817A818B819C810E947B03A7
:10017000882351F481E990E021E930E0F901208100
:100180002870FC01208309C081E990E021E930E07A
:10019000F90120812360FC01208328E539E344E74D
:1001A0005FE369817A818B819C810E947B03882334
:1001B00044F488E990E02FEF3FEFFC013183208386
:1001C00034C020E034E244EF56E469817A818B81C7
:1001D0009C810E949D04181634F488E990E0FC018B
:1001E0001182108222C008E910E020E030E040E0F7
:1001F00053E469817A818B819C810E94A204DC0195
:10020000CB019C01AD0160E074E284EF9AE40E94AE
:100210008003DC01CB01BC01CD010E94F203DC01B3
:10022000CB010197F8019183808384E990E0FC0180
:100230001182108289819A81AB81BC8180931B01DC
:1002400090931C01A0931D01B0931E0100000F901C
:100250000F900F900F90DF91CF911F910F91089504
:10026000CF93DF93CDB7DEB780E990E020E4FC01C7
:10027000208381E990E02BE0FC01208360E070E0C6
:10028000CB010E9490000000DF91CF910895CF93A1
:10029000DF93CDB7DEB780E990E0FC01108281E901
:1002A00090E0FC0110820000DF91CF910895CF9380
:1002B000DF93CDB7DEB781E890E02BE0FC0120832F
:1002C00088E890E02DE730E0FC01318320838FE661
:1002D00090E022E0FC01208384E890E0FC011182A0
:1002E000108280910E0190910F01A0911001B091A8
:1002F00011018093150190931601A0931701B093FB
:1003000018018FE590E02FE530E0F90120812068A9
:10031000FC0120830000DF91CF910895CF93DF93FC
:10032000CDB7DEB781E890E0FC0110820000DF91DC
:10033000CF910895CF93DF93CDB7DEB781E080935F
:1003400012010000DF91CF9108951F920F9200904B
:100350005F000F92112400905B000F922F933F9348
:100360004F935F936F937F938F939F93AF93BF93BD
:10037000EF93FF93CF93DF93CDB7DEB78091150155
:1003800090911601A0911701B09118010197A10950
:10039000B1098093150190931601A0931701B093B2
:1003A00018018091150190911601A0911701B0914B
:1003B0001801892B8A2B8B2B91F40E949A01809132
:1003C0000E0190910F01A0911001B0911101809345
:1003D000150190931601A0931701B0931801000026
:1003E000DF91CF91FF91EF91BF91AF919F918F914D
:1003F0007F916F915F914F913F912F910F9000925C
:100400005B000F9000925F000F901F901895CF93A4
:10041000DF9300D000D0CDB7DEB769837A838B83BA
:100420009C8389819A81AB81BC8180930E019093DA
:100430000F01A0931001B093110180910E019091D2
:100440000F01A0911001B0911101809315019093BB
:100450001601A0931701B093180100000F900F90A0
:100460000F900F90DF91CF910895CF93DF93CDB789
:10047000DEB780911F0190912001009719F001973C
:10048000A9F028C080911301813039F481E090E017
:100490009093200180931F0122C08091130181302D
:1004A000F1F01092200110921F0119C080911401E7
:1004B0008F3038F481E090E09093200180931F0109
:1004C00010C0809114018F3060F0109220011092C2
:1004D0001F0107C01092200110921F0103C00000ED
:1004E00001C0000080911F0190912001009719F038
:1004F000019759F013C0109214011092190160E095
:1005000070E0CB010E94900009C081E08093190146
:10051000809114018F5F8093140100000000DF912F
:10052000CF910895CF93DF93CDB7DEB780912101AE
:100530009091220181309105F9F08130910538F0D8
:100540008230910591F1039709F448C05CC0809115
:100550001901813039F481E090E090932201809379
:10056000210156C080911901882309F051C01092D1
:100570002201109221014CC080911A01853060F453
:1005800081E090E0909322018093210180911A01F3
:100590008F5F80931A013DC082E090E0909322012A
:1005A0008093210110921A0134C080911A01853084
:1005B00060F482E090E09093220180932101809189
:1005C0001A018F5F80931A0124C083E090E090931A
:1005D00022018093210110921A011BC080911A01FF
:1005E000853060F483E090E09093220180932101B4
:1005F00080911A018F5F80931A010BC01092220123
:100600001092210106C0109222011092210101C016
:10061000000080912101909122018130910589F0A3
:100620008130910530F08230910591F00397B9F057
:100630001DC010921A0160E070E0CB010E94900092
:1006400015C064EA70ED82E893E40E9490000EC049
:100650006BE774ED82E993E40E94900007C064EABE
:1006600070ED82E893E40E94900000000000DF91AA
:10067000CF910895CF93DF93CDB7DEB781E290E0BD
:10068000FC01108282E290E02FE0FC01208384E2F2
:1006900090E020EFFC01208382E290E0FC011082D8
:1006A0000E94300160E070E0CB010E949000109247
:1006B000200110921F01109222011092210168EC7A
:1006C00070E080E090E00E9407020E94570180E203
:1006D00090E0FC01808180958F70809313010E94CF
:1006E00035020E9492020000809112018823E1F3FA
:1006F00010921201ECCF0E94280408F481E00895C2
:100700000E9494030C9463040E945C0458F00E94BD
:10071000550440F029F45F3F29F00C944C0451112A
:100720000C9497040C9452040E94740468F3992367
:10073000B1F3552391F3951B550BBB27AA276217DD
:100740007307840738F09F5F5F4F220F331F441FEA
:10075000AA1FA9F335D00E2E3AF0E0E832D091501E
:100760005040E695001CCAF72BD0FE2F29D0660F0B
:10077000771F881FBB1F261737074807AB07B0E84E
:1007800009F0BB0B802DBF01FF2793585F4F3AF054
:100790009E3F510578F00C944C040C9497045F3FF5
:1007A000E4F3983ED4F3869577956795B795F795DA
:1007B0009F5FC9F7880F911D9695879597F90895C2
:1007C000E1E0660F771F881FBB1F6217730784075E
:1007D000BA0720F0621B730B840BBA0BEE1F88F76D
:1007E000E09508950E94F9036894B1110C94970460
:1007F00008950E947C0488F09F5798F0B92F99279C
:10080000B751B0F0E1F0660F771F881F991F1AF0FB
:10081000BA95C9F714C0B13091F00E949604B1E0C6
:1008200008950C949604672F782F8827B85F39F0C5
:10083000B93FCCF3869577956795B395D9F73EF494
:1008400090958095709561957F4F8F4F9F4F08953C
:10085000990F0008550FAA0BE0E8FEEF16161706D1
:10086000E807F907C0F012161306E407F50798F039
:10087000621B730B840B950B39F40A2661F0232B52
:10088000242B252B21F408950A2609F4A140A695CE
:100890008FEF811D811D089597F99F6780E870E0B3
:1008A00060E008959FEF80EC089500240A941616E6
:1008B000170618060906089500240A94121613064E
:1008C000140605060895092E0394000C11F48823DC
:1008D00052F0BB0F40F4BF2B11F460FF04C06F5FF8
:1008E0007F4F8F4F9F4F089557FD9058440F551FCE
:1008F00059F05F3F71F04795880F97FB991F61F0A2
:100900009F3F79F087950895121613061406551F18
:10091000F2CF4695F1DF08C0161617061806991F84
:10092000F1CF86957105610508940895E894BB2779
:1009300066277727CB0197F908950E94280408F4C9
:100940008FEF08950E94B5040C9463040E9455042F
:1009500038F00E945C0420F0952311F00C944C04B4
:100960000C94520411240C9497040E94740470F3A4
:10097000959FC1F3950F50E0551F629FF001729F44
:10098000BB27F00DB11D639FAA27F00DB11DAA1F53
:10099000649F6627B00DA11D661F829F2227B00DA0
:1009A000A11D621F739FB00DA11D621F839FA00D2B
:1009B000611D221F749F3327A00D611D231F849F7B
:1009C000600D211D822F762F6A2F11249F575040D2
:1009D0009AF0F1F088234AF0EE0FFF1FBB1F661F4D
:1009E000771F881F91505040A9F79E3F510580F016
:1009F0000C944C040C9497045F3FE4F3983ED4F3BA
:100A0000869577956795B795F795E7959F5FC1F7B9
:100A1000FE2B880F911D9695879597F90895F89468
:020A2000FFCF06
:100A2200000000020000000067000000000001005A
:020A32000000C2
:00000001FF
