:100000000C9446000C9465000C9465000C946500FB
:100010000C9465000C9465000C9465000C946500CC
:100020000C9465000C9465000C9465000C946500BC
:100030000C9465000C94A5010C9465000C9465006B
:100040000C9465000C9465000C9465000C9465009C
:100050000C9465000C9465000C9465000C9465008C
:100060000C9465000C9465000C9465000C9465007C
:100070000C9465000C9465000C9465000C9465006C
:100080000C9465000C9465000C94650011241FBE4F
:10009000CFEFD0E4DEBFCDBF11E0A0E0B1E0E4E2FD
:1000A000FAE000E00BBF02C007900D92A231B10749
:1000B000D9F721E0A2E1B1E001C01D92A332B2075D
:1000C000E1F70E9434030C9410050C940000CF93C8
:1000D000DF9300D01F92CDB7DEB789837B836A831D
:1000E00089818A3031F48A819B81BC018DE00E9434
:1000F000670080EC90E0FC018081882F90E08072A6
:100100009927892BB1F386EC90E02981FC012083AB
:1001100080E090E00F900F900F90DF91CF910895C5
:100120000F931F93CF93DF9300D000D0CDB7DEB7EE
:1001300069837A838B839C8380911A0190911B0140
:10014000A0911C01B0911D019C01AD0169817A81D2
:100150008B819C810E947C03882309F477C020E076
:1001600030E0A90169817A818B819C810E947C03A6
:10017000882351F481E990E021E930E0F901208100
:100180002870FC01208309C081E990E021E930E07A
:10019000F90120812360FC01208328E539E344E74D
:1001A0005FE369817A818B819C810E947C03882333
:1001B00044F488E990E02FEF3FEFFC013183208386
:1001C00034C020E034E244EF56E469817A818B81C7
:1001D0009C810E949E04181634F488E990E0FC018A
:1001E0001182108222C008E910E020E030E040E0F7
:1001F00053E469817A818B819C810E94A304DC0194
:10020000CB019C01AD0160E074E284EF9AE40E94AE
:100210008103DC01CB01BC01CD010E94F303DC01B1
:10022000CB010197F8019183808384E990E0FC0180
:100230001182108289819A81AB81BC8180931A01DD
:1002400090931B01A0931C01B0931D0100000F901F
:100250000F900F900F90DF91CF911F910F91089504
:10026000CF93DF93CDB7DEB780E990E020E4FC01C7
:10027000208381E990E02BE0FC01208360E070E0C6
:10028000CB010E9490000000DF91CF910895CF93A1
:10029000DF93CDB7DEB780E990E0FC01108281E901
:1002A00090E0FC0110820000DF91CF910895CF9380
:1002B000DF93CDB7DEB781E890E02BE0FC0120832F
:1002C00088E890E02DE730E0FC01318320838FE661
:1002D00090E022E0FC01208384E890E0FC011182A0
:1002E000108280910E0190910F01A0911001B091A8
:1002F00011018093150190931601A0931701B093FB
:1003000018018FE590E02FE530E0F90120812068A9
:10031000FC0120830000DF91CF910895CF93DF93FC
:10032000CDB7DEB781E890E0FC0110820000DF91DC
:10033000CF910895CF93DF93CDB7DEB781E080935F
:1003400012010000DF91CF9108951F920F9200904B
:100350005F000F92112400905B000F922F933F9348
:100360004F935F936F937F938F939F93AF93BF93BD
:10037000EF93FF93CF93DF93CDB7DEB78091150155
:1003800090911601A0911701B09118010197A10950
:10039000B1098093150190931601A0931701B093B2
:1003A00018018091150190911601A0911701B0914B
:1003B0001801892B8A2B8B2B91F40E949A01809132
:1003C0000E0190910F01A0911001B0911101809345
:1003D000150190931601A0931701B0931801000026
:1003E000DF91CF91FF91EF91BF91AF919F918F914D
:1003F0007F916F915F914F913F912F910F9000925C
:100400005B000F9000925F000F901F901895CF93A4
:10041000DF9300D000D0CDB7DEB769837A838B83BA
:100420009C8389819A81AB81BC8180930E019093DA
:100430000F01A0931001B093110180910E019091D2
:100440000F01A0911001B0911101809315019093BB
:100450001601A0931701B093180100000F900F90A0
:100460000F900F90DF91CF910895CF93DF93CDB789
:10047000DEB780911F0190912001009719F001973C
:1004800089F024C080911301813039F481E090E03B
:100490009093200180931F011FC0109220011092A1
:1004A0001F011AC0809114018F3038F481E090E070
:1004B0009093200180931F010EC0809114018F3012
:1004C00050F01092200110921F0105C010922001DF
:1004D00010921F0101C0000080911F019091200126
:1004E000009719F0019759F013C01092140110925F
:1004F0001E0160E070E0CB010E94900009C081E025
:1005000080931E01809114018F5F8093140100007D
:100510000000DF91CF910895CF93DF93CDB7DEB781
:10052000809121019091220181309105F9F0813073
:10053000910538F08230910591F1039709F448C094
:100540005CC080911E01882339F081E090E0909397
:1005500022018093210156C080911E01882309F455
:1005600051C010922201109221014CC080911901BA
:10057000853060F481E090E0909322018093210126
:10058000809119018F5F809319013DC082E090E056
:1005900090932201809321011092190134C080911F
:1005A0001901853060F482E090E0909322018093FD
:1005B0002101809119018F5F8093190124C083E08C
:1005C00090E09093220180932101109219011BC0A9
:1005D00080911901853060F483E090E090932201CE
:1005E00080932101809119018F5F809319010BC0C5
:1005F000109222011092210106C010922201109245
:10060000210101C0000080912101909122018130DF
:10061000910589F08130910530F08230910591F09B
:100620000397B9F01DC01092190160E070E0CB0192
:100630000E94900015C064EA70ED82E893E40E9485
:1006400090000EC06BE774ED82E993E40E94900085
:1006500007C064EA70ED82E893E40E949000000015
:100660000000DF91CF910895CF93DF93CDB7DEB730
:1006700081E290E0FC01108282E290E02FE0FC0138
:10068000208384E290E020EFFC01208382E290E06E
:10069000FC0110820E94300160E070E0CB010E94FA
:1006A00090001092200110921F01109222011092CE
:1006B000210168EC70E080E090E00E9407020E9457
:1006C000570180E290E0FC018081882F90E08170EA
:1006D000992721E0892B09F020E0822F80931301D4
:1006E0000E9435020E948C02000080911201882332
:1006F000E1F310921201E5CF0E94290408F481E091
:1007000008950E9495030C9464040E945D0458F0BF
:100710000E94560440F029F45F3F29F00C944D04E8
:1007200051110C9498040C9453040E94750468F3BE
:100730009923B1F3552391F3951B550BBB27AA279A
:1007400062177307840738F09F5F5F4F220F331FD4
:10075000441FAA1FA9F335D00E2E3AF0E0E832D09C
:1007600091505040E695001CCAF72BD0FE2F29D09F
:10077000660F771F881FBB1F261737074807AB0771
:10078000B0E809F0BB0B802DBF01FF2793585F4FE6
:100790003AF09E3F510578F00C944D040C94980467
:1007A0005F3FE4F3983ED4F3869577956795B795C8
:1007B000F7959F5FC9F7880F911D9695879597F9D3
:1007C0000895E1E0660F771F881FBB1F621773074C
:1007D0008407BA0720F0621B730B840BBA0BEE1F61
:1007E00088F7E09508950E94FA036894B1110C947B
:1007F000980408950E947D0488F09F5798F0B92FBF
:100800009927B751B0F0E1F0660F771F881F991F45
:100810001AF0BA95C9F714C0B13091F00E9497044C
:10082000B1E008950C949704672F782F8827B85F5C
:1008300039F0B93FCCF3869577956795B395D9F79D
:100840003EF490958095709561957F4F8F4F9F4FA7
:100850000895990F0008550FAA0BE0E8FEEF161651
:100860001706E807F907C0F012161306E407F507A4
:1008700098F0621B730B840B950B39F40A2661F018
:10088000232B242B252B21F408950A2609F4A140BB
:10089000A6958FEF811D811D089597F99F6780E8C8
:1008A00070E060E008959FEF80EC089500240A94C2
:1008B0001616170618060906089500240A9412163B
:1008C0001306140605060895092E0394000C11F46E
:1008D000882352F0BB0F40F4BF2B11F460FF04C01B
:1008E0006F5F7F4F8F4F9F4F089557FD9058440F74
:1008F000551F59F05F3F71F04795880F97FB991F7F
:1009000061F09F3F79F0879508951216130614063B
:10091000551FF2CF4695F1DF08C0161617061806C8
:10092000991FF1CF86957105610508940895E894A3
:10093000BB2766277727CB0197F908950E942904E2
:1009400008F48FEF08950E94B6040C9464040E948A
:10095000560438F00E945D0420F0952311F00C94A9
:100960004D040C94530411240C9498040E947504B3
:1009700070F3959FC1F3950F50E0551F629FF001F2
:10098000729FBB27F00DB11D639FAA27F00DB11D0B
:10099000AA1F649F6627B00DA11D661F829F222794
:1009A000B00DA11D621F739FB00DA11D621F839F1B
:1009B000A00D611D221F749F3327A00D611D231FF1
:1009C000849F600D211D822F762F6A2F11249F573F
:1009D00050409AF0F1F088234AF0EE0FFF1FBB1F42
:1009E000661F771F881F91505040A9F79E3F510501
:1009F00080F00C944D040C9498045F3FE4F3983E0F
:100A0000D4F3869577956795B795F795E7959F5FAA
:100A1000C1F7FE2B880F911D9695879597F908953C
:040A2000F894FFCF78
:100A24000000000200000000670000000000010058
:020A34000000C0
:00000001FF
