:100000000C948B000C94A2000C94A2000C94A200FF
:100010000C94A2000C94A2000C94A2000C94A200D8
:100020000C94A2000C94A2000C94A2000C94A200C8
:100030000C94A2000C94A2000C94A2000C94A200B8
:100040000C94A2000C94A2000C94A2000C94A200A8
:100050000C94A2000C94A2000C94A2000C94A20098
:100060000C94A2000C94A2000C94A2000C94A20088
:100070000C94A2000C94A2000C94A2000C94A20078
:100080000C94A2000C94A2000C94A200EC0151026A
:1000900051025102510251025102510251025102C8
:1000A00051025102510251025102510251025102B8
:1000B00051025102510251025102510251025102A8
:1000C0005102510251025102510251025102510298
:1000D00051024B025102510251025102510251028E
:1000E0004002510251025102510251024602F201F4
:1000F000F801FE0104020A02100216021C0222028A
:100100005102510251025102510251025102280280
:100110002E0234023A0211241FBECFEFD0E4DEBF1C
:10012000CDBF11E0A0E0B1E0E6ECF4E000E00BBFF1
:1001300002C007900D92AE30B107D9F70E94BB0103
:100140000C9461020C940000CF93DF9300D01F92B7
:10015000CDB7DEB789837B836A8389818A3031F4A6
:100160008A819B81BC018DE00E94A40080EC90E01C
:10017000FC018081882F90E080729927892BB1F350
:1001800086EC90E02981FC01208380E090E00F90D4
:100190000F900F90DF91CF910895CF93DF9300D010
:1001A000CDB7DEB789836A838981882F90E02A8161
:1001B000222F30E002C0959587952A95E2F781704D
:1001C000992721E0892B09F420E0822F0F900F90CE
:1001D000DF91CF910895CF93DF93CDB7DEB788E25B
:1001E00090E02FEEFC012083000086E290E0FC010D
:1001F000808160E00E94CD00882311F481E3B8C0C3
:1002000086E290E0FC01808161E00E94CD008823BD
:1002100011F484E3ADC086E290E0FC01808162E0ED
:100220000E94CD00882311F487E3A2C086E290E00B
:10023000FC01808163E00E94CD00882311F48AE2F2
:1002400097C088E290E02FEDFC012083000086E259
:1002500090E0FC01808160E00E94CD00882311F4D1
:1002600082E386C086E290E0FC01808161E00E942A
:10027000CD00882311F485E37BC086E290E0FC0189
:10028000808162E00E94CD00882311F488E370C071
:1002900086E290E0FC01808163E00E94CD0088232B
:1002A00011F480E365C088E290E02FEBFC0120832D
:1002B000000086E290E0FC01808160E00E94CD00B9
:1002C000882311F483E354C086E290E0FC0180812E
:1002D00061E00E94CD00882311F486E349C086E2E4
:1002E00090E0FC01808162E00E94CD00882311F43F
:1002F00089E33EC086E290E0FC01808163E00E94D9
:10030000CD00882311F483E233C088E290E02FE728
:10031000FC012083000086E290E0FC01808160E027
:100320000E94CD00882311F481E422C086E290E08F
:10033000FC01808161E00E94CD00882311F482E4F9
:1003400017C086E290E0FC01808162E00E94CD004F
:10035000882311F483E40CC086E290E0FC018081E4
:1003600063E00E94CD00882311F484E401C080E0A2
:10037000DF91CF910895CF93DF931F92CDB7DEB772
:1003800084E290E02FEFFC01208385E290E0FC0105
:10039000108287E290E020EFFC01208388E290E069
:1003A0002FE0FC0120830E94EB0089838981882F44
:1003B00090E0092E000CAA0BBB0B40E050E024E4B7
:1003C00030E0841B950B2817390708F46AC08A5B54
:1003D0009F4FFC010C94580285E290E02FE1FC0154
:1003E000208365C085E290E021E0FC0120835FC0AE
:1003F00085E290E022E0FC01208359C085E290E094
:1004000023E0FC01208353C085E290E024E0FC015E
:1004100020834DC085E290E025E0FC01208347C0A9
:1004200085E290E026E0FC01208341C085E290E077
:1004300027E0FC0120833BC085E290E028E0FC013E
:10044000208335C085E290E029E0FC0120832FC0A5
:1004500085E290E02AE0FC01208329C085E290E05B
:100460002BE0FC01208323C085E290E02CE0FC011E
:1004700020831DC085E290E02DE0FC01208317C0A1
:1004800085E290E02EE0FC01208311C085E290E03F
:10049000FC0110820CC085E290E02FE0FC0120837B
:1004A00006C085E290E02BE1FC01208300007BCFB9
:1004B000EE0FFF1F0024001C0BBE0790F691E02DED
:0604C0000994F894FFCF3F
:0E04C6000000000200000000A4000000000082
:00000001FF
